:100000000C9435000C945D000C945D000C945D0024
:100010000C945D000C945D000C945D000C945D00EC
:100020000C945D000C945D000C945D000C945D00DC
:100030000C945D000C945D000C945D000C945D00CC
:100040000C9420030C945D000C9490030C946A03B0
:100050000C945D000C945D000C945D000C945D00AC
:100060000C945D000C945D001D0511241FBECFEFA4
:10007000D8E0DEBFCDBF11E0A0E0B1E0E0E6FFE0F8
:1000800002C005900D92AA38B107D9F722E0AAE87C
:10009000B1E001C01D92A033B207E1F710E0C5E363
:1000A000D0E004C02197FE010E94A807C433D10705
:1000B000C9F70E94C2030C94AE070C9400003FB72E
:1000C000F89480918F0190919001A0919101B0914D
:1000D000920126B5A89B05C02F3F19F00196A11DDE
:1000E000B11D3FBFBA2FA92F982F8827BC01CD0182
:1000F000620F711D811D911D42E0660F771F881FE1
:10010000991F4A95D1F70895AF92BF92CF92DF928F
:10011000EF92FF920F931F93CF93DF936C017B01BC
:100120008B01040F151FEB015E01AE18BF08C0174D
:10013000D10759F06991D601ED91FC910190F081C0
:10014000E02DC6010995892B79F7C501DF91CF9183
:100150001F910F91FF90EF90DF90CF90BF90AF90E5
:100160000895FC01538D448D252F30E0842F90E0BD
:10017000821B930B541710F0CF96089501970895A2
:10018000FC01918D828D981761F0A28DAE0FBF2F6B
:10019000B11D5D968C91928D9F5F9F73928F90E0C1
:1001A00008958FEF9FEF0895FC01918D828D981730
:1001B00031F0828DE80FF11D858D90E008958FEF6D
:1001C0009FEF0895FC01918D228D892F90E0805C36
:1001D0009F4F821B91098F739927089583E991E0BE
:1001E0000E94E20021E0892B09F420E0822F08958B
:1001F00080E090E0892B29F00E94EE0081110C94A0
:1002000000000895FC01A48DA80FB92FB11DA35AB9
:10021000BF4F2C91848D90E001968F739927848F26
:10022000A689B7892C93A089B1898C918370806449
:100230008C93938D848D981306C00288F389E02DEA
:1002400080818F7D80830895EF92FF920F931F939B
:10025000CF93DF93EC0181E0888F9B8D8C8D981379
:100260001AC0E889F989808185FF15C09FB7F89485
:10027000EE89FF896083E889F989808183708064D1
:1002800080839FBF81E090E0DF91CF911F910F911C
:10029000FF90EF900895F62E0B8D10E00F5F1F4F2B
:1002A0000F731127E02E8C8D8E110CC00FB607FC3A
:1002B000FACFE889F989808185FFF5CFCE010E94C8
:1002C0000201F1CFEB8DEC0FFD2FF11DE35AFF4F33
:1002D000F0829FB7F8940B8FEA89FB898081806256
:1002E000CFCFCF93DF93EC01888D8823B9F0AA8913
:1002F000BB89E889F9898C9185FD03C0808186FDE1
:100300000DC00FB607FCF7CF8C9185FFF2CF80812F
:1003100085FFEDCFCE010E940201E9CFDF91CF91A1
:100320000895FC0101900020E9F73197AF01481BC7
:10033000590BBC0183E991E00C9484008F929F9249
:10034000AF92BF920F931F93CF93DF93CDB7DEB7DA
:10035000A1970FB6F894DEBF0FBECDBF19A24230F1
:1003600008F44AE08E010F5D1F4F842E912CB12CB2
:10037000A12CA50194010E948607E62FB901CA01AC
:10038000EA30F4F4E05DD801EE938D01232B242BA9
:10039000252B79F790E080E0109719F0CD010E94AD
:1003A0009101A1960FB6F894DEBF0FBECDBFDF91CD
:1003B000CF911F910F91BF90AF909F908F90089514
:1003C000E95CE1CF0C9491014F925F926F927F9222
:1003D0008F929F92AF92BF92CF92DF92EF92FF9255
:1003E0000F931F93CF936B017C01742EAC019B0183
:1003F0000E948107882399F082E191E0CF911F91BB
:100400000F91FF90EF90DF90CF90BF90AF909F90B3
:100410008F907F906F905F904F900C949101460168
:100420005701E894B7F82FEF3FEF4FE75FE7C501BB
:10043000B4010E94810781110DC02FEF3FEF4FE7FC
:100440005FE7C501B4010E94B70518161CF486E1E8
:1004500091E0D4CF2FEF3FEF4FE75FE4C701B60144
:100460000E940F0718161CF48AE191E0C7CF2FEF06
:100470003FEF4FE75FECC701B6010E94B70587FD6C
:10048000F3CF20E030E0A901C701B6010E94B70513
:1004900010E000E087FF0AC06DE283E991E00E946E
:1004A00024018C01F7FAF094F7F8F094C0E060E0D2
:1004B00070E080E09FE37C1641F020E030E040E215
:1004C00051E40E94BC05CF5FF6CFA70196010E94C0
:1004D0004B052B013C010E942E064B015C014AE0BA
:1004E0000E949E017C01E00EF11ECC23C1F1C501EA
:1004F000B4010E945D069B01AC01C301B2010E94E0
:100500004A054B015C016EE283E991E00E942401FF
:10051000E80EF91EC15018F120E030E040E251E44D
:10052000C501B4010E9414072B013C010E942E0654
:100530004B01B12CA12C4AE0C501B4010E949E01DF
:10054000E80EF91EC501B4010E945D069B01AC01D5
:10055000C301B2010E944A054B015C01DBCFC70118
:10056000CF911F910F91FF90EF90DF90CF90BF90B0
:10057000AF909F908F907F906F905F904F90089575
:10058000AF92CF92DF92EF92FF920F931F93CF9390
:10059000DF93CDB7DEB72C970FB6F894DEBF0FBE52
:1005A000CDBF8C018EE191E00E94E201C8010E9462
:1005B000E20180E291E00E94E20142E060E070E04E
:1005C000CB010E94E4018CE291E00E94E20142E052
:1005D00060E070E0CB010E94E40185E391E00E94BD
:1005E000E20142E060E070E0CB010E94E40185E8B6
:1005F00091E00E94E201AA2099F08DE391E02C960F
:100600000FB6F894DEBF0FBECDBFDF91CF911F9123
:100610000F91FF90EF90DF90CF90AF900C94E2019C
:100620002C960FB6F894DEBF0FBECDBFDF91CF91F1
:100630001F910F91FF90EF90DF90CF90AF900895B2
:100640001F920F920FB60F9211242F933F938F9307
:100650009F93AF93BF9380918B0190918C01A09158
:100660008D01B0918E0130918A0123E0230F2D3747
:1006700058F50196A11DB11D20938A0180938B012D
:1006800090938C01A0938D01B0938E0180918F0186
:1006900090919001A0919101B09192010196A11DBC
:1006A000B11D80938F0190939001A0939101B0931D
:1006B0009201BF91AF919F918F913F912F910F9098
:1006C0000FBE0F901F90189526E8230F0296A11DCC
:1006D000B11DD2CF1F920F920FB60F9211242F93FC
:1006E0003F934F935F936F937F938F939F93AF93BA
:1006F000BF93EF93FF9383E991E00E940201FF9182
:10070000EF91BF91AF919F918F917F916F915F9189
:100710004F913F912F910F900FBE0F901F90189502
:100720001F920F920FB60F9211242F938F939F93C6
:10073000EF93FF93E091A301F091A4018081E091F8
:10074000A901F091AA0182FD1BC090818091AC01AA
:100750008F5F8F732091AD01821741F0E091AC0162
:10076000F0E0ED56FE4F958F8093AC01FF91EF9135
:100770009F918F912F910F900FBE0F901F90189502
:100780008081F4CFCF93DF93CDB7DEB7EC970FB670
:10079000F894DEBF0FBECDBF789484B5826084BD6F
:1007A00084B5816084BD85B5826085BD85B5816075
:1007B00085BD80916E00816080936E0010928100F3
:1007C00080918100826080938100809181008160AE
:1007D000809381008091800081608093800080916F
:1007E000B10084608093B1008091B00081608093FB
:1007F000B00080917A00846080937A0080917A00C2
:10080000826080937A0080917A00816080937A0080
:1008100080917A00806880937A001092C100E09104
:10082000A301F091A40182E08083E0919F01F09107
:10083000A0011082E091A101F091A20180E18083EA
:100840001092AB01E091A701F091A80186E08083AE
:10085000E091A501F091A601808180618083E09103
:10086000A501F091A601808188608083E091A501B7
:10087000F091A601808180688083E091A501F091CC
:10088000A60180818F7D808390E0892E90E0992E53
:100890008FE391E00E94E2012FB7F89460918B0101
:1008A00070918C0180918D0190918E012FBF4AE053
:1008B0000E949E0185E491E00E94E20119821A8261
:1008C0001B821C821D821E821F82188619861A8630
:1008D0001B861C86AA24A394C12CDA80EB80FC80A2
:1008E00000E01E812F81388540E05A856B857C852C
:1008F00082E591E00E94C0021D861E861F86188A2E
:10090000198A1A8A1B8A1C8A1D8A1E8A1F8A188EB7
:10091000DE84EF84F8881A892B893C8940E05E895F
:100920006F89788D88E591E00E94C002198E1A8E39
:100930001B8E1C8E1D8E1E8E1F8E18A219A21AA22F
:100940001BA21CA2DA8CEB8CFC8C1E8D2F8D38A187
:1009500040E05AA16BA17CA183E691E00E94C00215
:100960001DA21EA21FA218A619A61AA61BA61CA687
:100970001DA61EA61FA618AADEA0EFA0F8A41AA501
:100980002BA53CA540E05EA56FA578A98FE691E078
:100990000E94C00219AA1AAA1BAA1CAA1DAA1EAA52
:1009A0001FAA18AE19AE1AAE1BAE1CAEA12CDAA847
:1009B000EBA8FCA81EA92FA938AD40E05AAD6BAD3D
:1009C0007CAD89E791E00E94C00284E891E00E943A
:1009D000910187E891E00E9491010E945F002B0144
:1009E0003C0180E1C82ED12CE12CF12C0E945F004B
:1009F0006419750986099709683E73408105910558
:100A0000A8F321E0C21AD108E108F10888EE480EE7
:100A100083E0581E611C711CC114D104E104F1046F
:100A200029F78114910409F433CF0E94EE00882342
:100A300009F42ECF0E9400002BCFE3E9F1E01382EE
:100A4000128288EE93E0A0E0B0E084839583A683D1
:100A5000B78384E091E09183808385EC90E0958773
:100A6000848784EC90E09787868780EC90E0918B78
:100A7000808B81EC90E0938B828B82EC90E0958B65
:100A8000848B86EC90E0978B868B118E128E138E62
:100A9000148E08955058BB27AA270E9462050C9413
:100AA000D5060E94C70638F00E94CE0620F039F421
:100AB0009F3F19F426F40C94C4060EF4E095E7FB6E
:100AC0000C94BE06E92F0E94E60658F3BA17620797
:100AD00073078407950720F079F4A6F50C940807AE
:100AE0000EF4E0950B2EBA2FA02D0B01B901900149
:100AF0000C01CA01A0011124FF27591B99F0593F8D
:100B000050F4503E68F11A16F040A22F232F342FD4
:100B10004427585FF3CF469537952795A795F04022
:100B20005395C9F77EF41F16BA0B620B730B840B37
:100B3000BAF09150A1F0FF0FBB1F661F771F881FEF
:100B4000C2F70EC0BA0F621F731F841F48F4879547
:100B500077956795B795F7959E3F08F0B0CF939539
:100B6000880F08F09927EE0F9795879508950E94B2
:100B70009A0608F481E008950E94D0050C94D506E9
:100B80000E94CE0658F00E94C70640F029F45F3F4D
:100B900029F00C94BE0651110C9409070C94C4065C
:100BA0000E94E60668F39923B1F3552391F3951B50
:100BB000550BBB27AA2762177307840738F09F5F7E
:100BC0005F4F220F331F441FAA1FA9F335D00E2EEB
:100BD0003AF0E0E832D091505040E695001CCAF758
:100BE0002BD0FE2F29D0660F771F881FBB1F26171B
:100BF00037074807AB07B0E809F0BB0B802DBF01F2
:100C0000FF2793585F4F3AF09E3F510578F00C94C0
:100C1000BE060C9409075F3FE4F3983ED4F3869533
:100C200077956795B795F7959F5FC9F7880F911DE1
:100C30009695879597F90895E1E0660F771F881FCD
:100C4000BB1F621773078407BA0720F0621B730B80
:100C5000840BBA0BEE1F88F7E09508950E94EE060C
:100C600088F09F5798F0B92F9927B751B0F0E1F06D
:100C7000660F771F881F991F1AF0BA95C9F714C01D
:100C8000B13091F00E940807B1E008950C94080774
:100C9000672F782F8827B85F39F0B93FCCF3869556
:100CA00077956795B395D9F73EF4909580957095B3
:100CB00061957F4F8F4F9F4F0895E89409C097FB30
:100CC0003EF490958095709561957F4F8F4F9F4F23
:100CD0009923A9F0F92F96E9BB279395F695879567
:100CE00077956795B795F111F8CFFAF4BB0F11F42A
:100CF00060FF1BC06F5F7F4F8F4F9F4F16C08823D1
:100D000011F096E911C0772321F09EE8872F762F06
:100D100005C0662371F096E8862F70E060E02AF047
:100D20009A95660F771F881FDAF7880F9695879533
:100D300097F90895990F0008550FAA0BE0E8FEEF08
:100D400016161706E807F907C0F012161306E4078F
:100D5000F50798F0621B730B840B950B39F40A2688
:100D600061F0232B242B252B21F408950A2609F466
:100D7000A140A6958FEF811D811D089597F99F676A
:100D800080E870E060E008959FEF80EC0895002413
:100D90000A941616170618060906089500240A94E0
:100DA00012161306140605060895092E0394000C66
:100DB00011F4882352F0BB0F40F4BF2B11F460FFF5
:100DC00004C06F5F7F4F8F4F9F4F089557FD90581E
:100DD000440F551F59F05F3F71F04795880F97FBFF
:100DE000991F61F09F3F79F08795089512161306B9
:100DF0001406551FF2CF4695F1DF08C016161706E8
:100E00001806991FF1CF869571056105089408951C
:100E1000E894BB2766277727CB0197F908950E94AE
:100E20009A0608F48FEF08950E9427070C94D506C0
:100E30000E94C70638F00E94CE0620F0952311F0DC
:100E40000C94BE060C94C40611240C9409070E944D
:100E5000E60670F3959FC1F3950F50E0551F629F12
:100E6000F001729FBB27F00DB11D639FAA27F00D03
:100E7000B11DAA1F649F6627B00DA11D661F829F2A
:100E80002227B00DA11D621F739FB00DA11D621F0F
:100E9000839FA00D611D221F749F3327A00D611D2C
:100EA000231F849F600D211D822F762F6A2F11240E
:100EB0009F5750409AF0F1F088234AF0EE0FFF1F41
:100EC000BB1F661F771F881F91505040A9F79E3F98
:100ED000510580F00C94BE060C9409075F3FE4F3C3
:100EE000983ED4F3869577956795B795F795E795EE
:100EF0009F5FC1F7FE2B880F911D9695879597F9F7
:100F000008950E949A06880B990B0895A1E21A2E63
:100F1000AA1BBB1BFD010DC0AA1FBB1FEE1FFF1F9D
:100F2000A217B307E407F50720F0A21BB30BE40BED
:100F3000F50B661F771F881F991F1A9469F7609534
:100F40007095809590959B01AC01BD01CF010895EE
:100F5000EE0FFF1F0590F491E02D0994F894FFCF58
:100F60000000000024018400B1007101E200C00013
:100F7000D4006E616E00696E66006F7666002200B6
:100F8000223A7B227069746368223A002C22726FC5
:100F90006C6C223A002C22796177223A002C007B7B
:100FA0002274223A002C2273656E736F7273223A98
:100FB0007B006368657374006C6566745F656C6262
:100FC0006F770072696768745F656C626F77006C39
:100FD0006566745F6B6E65650072696768745F6BE8
:0A0FE0006E6565007D7D000D0A00BE
:00000001FF
