:100000000C9435000C945D000C945D000C945D0024
:100010000C945D000C945D000C945D000C945D00EC
:100020000C945D000C945D000C945D000C945D00DC
:100030000C945D000C945D000C945D000C945D00CC
:100040000C944C030C945D000C94BC030C9496032C
:100050000C945D000C945D000C945D000C945D00AC
:100060000C945D000C945D00920511241FBECFEF2F
:10007000D8E0DEBFCDBF11E0A0E0B1E0EAE4F0E1FE
:1000800002C005900D92AA39B107D9F722E0AAE97A
:10009000B1E001C01D92A034B207E1F710E0C5E362
:1000A000D0E004C02197FE010E941D08C433D1078F
:1000B000C9F70E94EE030C9423080C9400003FB78C
:1000C000F89480919F019091A001A091A101B0911D
:1000D000A20126B5A89B05C02F3F19F00196A11DCE
:1000E000B11D3FBFBA2FA92F982F8827BC01CD0182
:1000F000620F711D811D911D42E0660F771F881FE1
:10010000991F4A95D1F70895AF92BF92CF92DF928F
:10011000EF92FF920F931F93CF93DF936C017B01BC
:100120008B01040F151FEB015E01AE18BF08C0174D
:10013000D10759F06991D601ED91FC910190F081C0
:10014000E02DC6010995892B79F7C501DF91CF9183
:100150001F910F91FF90EF90DF90CF90BF90AF90E5
:100160000895FC01538D448D252F30E0842F90E0BD
:10017000821B930B541710F0CF96089501970895A2
:10018000FC01918D828D981761F0A28DAE0FBF2F6B
:10019000B11D5D968C91928D9F5F9F73928F90E0C1
:1001A00008958FEF9FEF0895FC01918D828D981730
:1001B00031F0828DE80FF11D858D90E008958FEF6D
:1001C0009FEF0895FC01918D228D892F90E0805C36
:1001D0009F4F821B91098F739927089583EA91E0BD
:1001E0000E94E20021E0892B09F420E0822F08958B
:1001F00080E090E0892B29F00E94EE0081110C94A0
:1002000000000895FC01A48DA80FB92FB11DA35AB9
:10021000BF4F2C91848D90E001968F739927848F26
:10022000A689B7892C93A089B1898C918370806449
:100230008C93938D848D981306C00288F389E02DEA
:1002400080818F7D80830895EF92FF920F931F939B
:10025000CF93DF93EC0181E0888F9B8D8C8D981379
:100260001AC0E889F989808185FF15C09FB7F89485
:10027000EE89FF896083E889F989808183708064D1
:1002800080839FBF81E090E0DF91CF911F910F911C
:10029000FF90EF900895F62E0B8D10E00F5F1F4F2B
:1002A0000F731127E02E8C8D8E110CC00FB607FC3A
:1002B000FACFE889F989808185FFF5CFCE010E94C8
:1002C0000201F1CFEB8DEC0FFD2FF11DE35AFF4F33
:1002D000F0829FB7F8940B8FEA89FB898081806256
:1002E000CFCFCF93DF93EC01888D8823B9F0AA8913
:1002F000BB89E889F9898C9185FD03C0808186FDE1
:100300000DC00FB607FCF7CF8C9185FFF2CF80812F
:1003100085FFEDCFCE010E940201E9CFDF91CF91A1
:100320000895FC0101900020E9F73197AF01481BC7
:10033000590BBC0183EA91E00C9484008F929F9248
:10034000AF92BF920F931F93CF93DF93CDB7DEB7DA
:10035000A1970FB6F894DEBF0FBECDBF19A24230F1
:1003600008F44AE08E010F5D1F4F842E912CB12CB2
:10037000A12CA50194010E94FB07E62FB901CA0137
:10038000EA30F4F4E05DD801EE938D01232B242BA9
:10039000252B79F790E080E0109719F0CD010E94AD
:1003A0009101A1960FB6F894DEBF0FBECDBFDF91CD
:1003B000CF911F910F91BF90AF909F908F90089514
:1003C000E95CE1CF0C9491014F925F926F927F9222
:1003D0008F929F92AF92BF92CF92DF92EF92FF9255
:1003E0000F931F93CF936B017C01742EAC019B0183
:1003F0000E94F607882399F082E191E0CF911F9146
:100400000F91FF90EF90DF90CF90BF90AF909F90B3
:100410008F907F906F905F904F900C949101460168
:100420005701E894B7F82FEF3FEF4FE75FE7C501BB
:10043000B4010E94F60781110DC02FEF3FEF4FE787
:100440005FE7C501B4010E942C0618161CF486E172
:1004500091E0D4CF2FEF3FEF4FE75FE4C701B60144
:100460000E94840718161CF48AE191E0C7CF2FEF91
:100470003FEF4FE75FECC701B6010E942C0687FDF6
:10048000F3CF20E030E0A901C701B6010E942C069D
:1004900010E000E087FF0AC06DE283EA91E00E946D
:1004A00024018C01F7FAF094F7F8F094C0E060E0D2
:1004B00070E080E09FE37C1641F020E030E040E215
:1004C00051E40E943106CF5FF6CFA70196010E944A
:1004D000C0052B013C010E94A3064B015C014AE0D0
:1004E0000E949E017C01E00EF11ECC23C1F1C501EA
:1004F000B4010E94D2069B01AC01C301B2010E946B
:10050000BF054B015C016EE283EA91E00E94240189
:10051000E80EF91EC15018F120E030E040E251E44D
:10052000C501B4010E9489072B013C010E94A3066A
:100530004B01B12CA12C4AE0C501B4010E949E01DF
:10054000E80EF91EC501B4010E94D2069B01AC0160
:10055000C301B2010E94BF054B015C01DBCFC701A3
:10056000CF911F910F91FF90EF90DF90CF90BF90B0
:10057000AF909F908F907F906F905F904F90089575
:10058000EF92FF921F93CF93DF93CDB7DEB77C013D
:100590001CA58EE191E00E94E201C7010E94E201E8
:1005A00080E291E00E94E201688579858A859B85D9
:1005B00042E00E94E4018CE291E00E94E2016C853D
:1005C0007D858E859F8542E00E94E40185E391E070
:1005D0000E94E201688979898A899B8942E00E94A8
:1005E000E4018DE391E00E94E2016C897D898E89AE
:1005F0009F8943E00E94E40188E491E00E94E201C7
:10060000688D798D8A8D9B8D43E00E94E40188E49A
:1006100091E00E94E20143E063EC75EF8CE191E42C
:100620000E94E4018AE491E00E94E20168A179A1BC
:100630008AA19BA143E00E94E40188E491E00E942A
:10064000E2016CA17DA18EA19FA143E00E94E40183
:1006500088E491E00E94E20168A579A58AA59BA59E
:1006600043E00E94E40185E591E00E94E20185E912
:1006700091E00E94E201112349F088E491E0DF91CA
:10068000CF911F91FF90EF900C94E201DF91CF91F9
:100690001F91FF90EF9008951F920F920FB60F9247
:1006A00011242F933F938F939F93AF93BF93809188
:1006B0009B0190919C01A0919D01B0919E01309170
:1006C0009A0123E0230F2D3758F50196A11DB11D86
:1006D00020939A0180939B0190939C01A0939D018C
:1006E000B0939E0180919F019091A001A091A101E2
:1006F000B091A2010196A11DB11D80939F0190931D
:10070000A001A093A101B093A201BF91AF919F91CD
:100710008F913F912F910F900FBE0F901F901895C2
:1007200026E8230F0296A11DB11DD2CF1F920F9272
:100730000FB60F9211242F933F934F935F936F93B4
:100740007F938F939F93AF93BF93EF93FF9383EA2E
:1007500091E00E940201FF91EF91BF91AF919F91B3
:100760008F917F916F915F914F913F912F910F905A
:100770000FBE0F901F9018951F920F920FB60F92F9
:1007800011242F938F939F93EF93FF93E091B301E5
:10079000F091B4018081E091B901F091BA0182FD3C
:1007A0001BC090818091BC018F5F8F732091BD0130
:1007B000821741F0E091BC01F0E0ED55FE4F958FBE
:1007C0008093BC01FF91EF919F918F912F910F909A
:1007D0000FBE0F901F9018958081F4CFCF93DF93B9
:1007E000CDB7DEB7C659D1090FB6F894DEBF0FBE3C
:1007F000CDBF789484B5826084BD84B5816084BDAA
:1008000085B5826085BD85B5816085BD80916E00AE
:10081000816080936E0010928100809181008260DF
:10082000809381008091810081608093810080911C
:1008300080008160809380008091B100846080930B
:10084000B1008091B00081608093B00080917A0007
:10085000846080937A0080917A00826080937A002D
:1008600080917A00816080937A0080917A0080681C
:1008700080937A001092C100E091B301F091B4012D
:1008800082E08083E091AF01F091B0011082E091AD
:10089000B101F091B20180E180831092BB01E0913F
:1008A000B701F091B80186E08083E091B501F09145
:1008B000B601808180618083E091B501F091B6013D
:1008C000808188608083E091B501F091B6018081DC
:1008D00080688083E091B501F091B60180818F7DC1
:1008E000808314E2CE010196CF56DF4F998388832F
:1008F000C159D04093ECC92E95EFD92E9CE1E92E39
:1009000091E4F92E01E01E0195E2290E311CFE0151
:10091000E75BFF4FCD56DF4FF983E883C359D040E3
:10092000CE0183599F4FCB56DF4F99838883C5599A
:10093000D04087E591E00E94E2012FB7F8946091E2
:100940009B0170919C0180919D0190919E012FBF10
:100950004AE00E949E018DE591E00E94E201CF569F
:10096000DF4FE881F981C159D040212F11922A959A
:10097000E9F7CD8ADE8AEF8AF88E0F938DB79EB79E
:1009800084970FB6F8949EBF0FBE8DBFADB7BEB7AC
:100990001196FE013196812F01900D928A95E1F713
:1009A0008AE691E00E94C002F101212F11922A955E
:1009B000E9F7C9AEDAAEEBAEFCAE0FB6F894DEBF27
:1009C0000FBECDBF0F93EDB7FEB7B4970FB6F89437
:1009D000FEBF0FBEEDBFADB7BEB71196F101812FBF
:1009E00001900D928A95E1F784E791E00E94C002A0
:1009F000CD56DF4FE881F981C359D040212F1192A4
:100A00002A95E9F7A196CCAEDDAEEEAEFFAEA1978A
:100A10000FB6F894DEBF0FBECDBF0F93EDB7FEB794
:100A2000B4970FB6F894FEBF0FBEEDBFADB7BEB71B
:100A30001196FE01E75BFF4F812F01900D928A9581
:100A4000E1F78FE791E00E94C002CB56DF4FE881CB
:100A5000F981C559D040212F11922A95E9F7CF5736
:100A6000DF4FC882D982EA82FB82C158D0400FB6DC
:100A7000F894DEBF0FBECDBF1F92EDB7FEB7B4979F
:100A80000FB6F894FEBF0FBEEDBFADB7BEB711965F
:100A9000FE01E359FF4F812F01900D928A95E1F7F6
:100AA00089E891E00E94C0020FB6F894DEBF0FBE45
:100AB000CDBF84E991E00E94910187E991E00E9415
:100AC00091010E945F004B015C0180E1482E512C96
:100AD000612C712C0E945F00681979098A099B09B1
:100AE000683E734081059105A8F391E0491A5108C9
:100AF00061087108E8EE8E0EE3E09E1EA11CB11C99
:100B0000411451046104710429F780E090E0892BBD
:100B100009F40FCF0E94EE00882309F40ACF0E9447
:100B2000000007CFE3EAF1E01382128288EE93E03F
:100B3000A0E0B0E084839583A683B78384E091E04E
:100B40009183808385EC90E09587848784EC90E0A6
:100B50009787868780EC90E0918B808B81EC90E08A
:100B6000938B828B82EC90E0958B848B86EC90E06B
:100B7000978B868B118E128E138E148E089550587B
:100B8000BB27AA270E94D7050C944A070E943C075E
:100B900038F00E94430720F039F49F3F19F426F4FF
:100BA0000C9439070EF4E095E7FB0C943307E92F1A
:100BB0000E945B0758F3BA1762077307840795070B
:100BC00020F079F4A6F50C947D070EF4E0950B2E39
:100BD000BA2FA02D0B01B90190010C01CA01A0018F
:100BE0001124FF27591B99F0593F50F4503E68F1EA
:100BF0001A16F040A22F232F342F4427585FF3CF2B
:100C0000469537952795A795F0405395C9F77EF4FB
:100C10001F16BA0B620B730B840BBAF09150A1F044
:100C2000FF0FBB1F661F771F881FC2F70EC0BA0FCA
:100C3000621F731F841F48F4879577956795B79552
:100C4000F7959E3F08F0B0CF9395880F08F099274D
:100C5000EE0F9795879508950E940F0708F481E09D
:100C600008950E9445060C944A070E94430758F0D5
:100C70000E943C0740F029F45F3F29F00C943307B1
:100C800051110C947E070C9439070E945B0768F39E
:100C90009923B1F3552391F3951B550BBB27AA2735
:100CA00062177307840738F09F5F5F4F220F331F6F
:100CB000441FAA1FA9F335D00E2E3AF0E0E832D037
:100CC00091505040E695001CCAF72BD0FE2F29D03A
:100CD000660F771F881FBB1F261737074807AB070C
:100CE000B0E809F0BB0B802DBF01FF2793585F4F81
:100CF0003AF09E3F510578F00C9433070C947E0730
:100D00005F3FE4F3983ED4F3869577956795B79562
:100D1000F7959F5FC9F7880F911D9695879597F96D
:100D20000895E1E0660F771F881FBB1F62177307E6
:100D30008407BA0720F0621B730B840BBA0BEE1FFB
:100D400088F7E09508950E94630788F09F5798F010
:100D5000B92F9927B751B0F0E1F0660F771F881FC0
:100D6000991F1AF0BA95C9F714C0B13091F00E94DA
:100D70007D07B1E008950C947D07672F782F8827B1
:100D8000B85F39F0B93FCCF3869577956795B39501
:100D9000D9F73EF490958095709561957F4F8F4F70
:100DA0009F4F0895E89409C097FB3EF49095809575
:100DB000709561957F4F8F4F9F4F9923A9F0F92F21
:100DC00096E9BB279395F695879577956795B7959F
:100DD000F111F8CFFAF4BB0F11F460FF1BC06F5F85
:100DE0007F4F8F4F9F4F16C0882311F096E911C097
:100DF000772321F09EE8872F762F05C0662371F0B8
:100E000096E8862F70E060E02AF09A95660F771FCB
:100E1000881FDAF7880F9695879597F90895990FA7
:100E20000008550FAA0BE0E8FEEF16161706E807B4
:100E3000F907C0F012161306E407F50798F0621BD5
:100E4000730B840B950B39F40A2661F0232B242BAA
:100E5000252B21F408950A2609F4A140A6958FEFC9
:100E6000811D811D089597F99F6780E870E060E01B
:100E700008959FEF80EC089500240A941616170633
:100E800018060906089500240A941216130614067B
:100E900005060895092E0394000C11F4882352F0DE
:100EA000BB0F40F4BF2B11F460FF04C06F5F7F4F96
:100EB0008F4F9F4F089557FD9058440F551F59F07D
:100EC0005F3F71F04795880F97FB991F61F09F3F37
:100ED00079F087950895121613061406551FF2CF60
:100EE0004695F1DF08C0161617061806991FF1CFB0
:100EF00086957105610508940895E894BB276627D7
:100F00007727CB0197F908950E940F0708F48FEF18
:100F100008950E949C070C944A070E943C0738F0F1
:100F20000E94430720F0952311F00C9433070C9492
:100F3000390711240C947E070E945B0770F3959F7C
:100F4000C1F3950F50E0551F629FF001729FBB27C0
:100F5000F00DB11D639FAA27F00DB11DAA1F649F5C
:100F60006627B00DA11D661F829F2227B00DA11D0F
:100F7000621F739FB00DA11D621F839FA00D611D95
:100F8000221F749F3327A00D611D231F849F600DB6
:100F9000211D822F762F6A2F11249F5750409AF0DF
:100FA000F1F088234AF0EE0FFF1FBB1F661F771F6B
:100FB000881F91505040A9F79E3F510580F00C9436
:100FC00033070C947E075F3FE4F3983ED4F3869595
:100FD00077956795B795F795E7959F5FC1F7FE2BD6
:100FE000880F911D9695879597F908950E940F0790
:100FF000880B990B0895A1E21A2EAA1BBB1BFD01B9
:101000000DC0AA1FBB1FEE1FFF1FA217B307E407E7
:10101000F50720F0A21BB30BE40BF50B661F771F3F
:10102000881F991F1A9469F760957095809590951F
:101030009B01AC01BD01CF010895EE0FFF1F05908C
:0A104000F491E02D0994F894FFCF1D
:10104A000000000024018400B1007101E200C00028
:10105A00D4006E616E00696E66006F7666002200CB
:10106A00223A7B227069746368223A002C22726FDA
:10107A006C6C223A002C22796177223A002C226188
:10108A006363656C223A5B002C005D2C22677972DF
:10109A006F223A5B005D007B2274223A002C227395
:1010AA00656E736F7273223A7B006C6566745F6853
:1010BA00616E640072696768745F68616E64006C6F
:1010CA006566745F666F6F740072696768745F66DD
:0A10DA006F6F74007D7D000D0A00A9
:00000001FF
